:020000021000EC
:10C00000000002209DC50100C5C50100C7C5010093
:10C01000C9C50100CBC50100CDC50100000000006D
:10C02000000000000000000000000000CFC501007B
:10C03000D1C5010000000000D3C50100D5C5010035
:10C0400055D30100D7C50100D7C50100D7C50100F0
:10C05000D7C50100D7C50100BDCF0100D7C501007C
:10C06000D7C50100D7C50100D7C50100D7C501005C
:10C07000D7C50100D7C50100D7C50100D7C501004C
:10C08000D7C5010019DC0100D7C50100D7C50100E3
:10C09000D7C50100D7C50100D7C50100D7C501002C
:10C0A000D7C50100D7C50100D7C50100D7C501001C
:10C0B00009CC0100D7C5010000000000000000000D
:10C0C000D7C50100D7C50100D7C50100D7C50100FC
:10C0D000D7C50100D7C50100D7C50100D7C50100EC
:10C0E000D7C50100D7C50100D7C501000000000079
:10C0F00000000000D7C5010000000000D7C5010006
:10C10000000000000000000000000000000000002F
:10C11000000000000000000000000000000000001F
:10C12000000000000000000000000000000000000F
:10C1300000000000000000000000000000000000FF
:10C1400000000000000000000000000000000000EF
:10C1500000000000000000000000000000000000DF
:10C1600000000000000000000000000000000000CF
:10C1700000000000000000000000000000000000BF
:10C1800000000000000000000000000000000000AF
:10C19000000000000000000000000000000000009F
:10C1A000000000000000000000000000000000008F
:10C1B000000000000000000000000000000000007F
:10C1C000000000000000000000000000000000006F
:10C1D000000000000000000000000000000000005F
:10C1E000000000000000000000000000000000004F
:10C1F000000000000000000000000000000000003F
:10C200000348044B834202D0034B03B118477047E5
:10C21000801200208012002000000000054806491E
:10C220000B1AD90F01EBA301491002D0034B03B144
:10C230001847704780120020801200200000000084
:10C2400010B5064C237843B9FFF7DAFF044B13B15E
:10C250000448AFF300800123237010BD801200203A
:10C2600000000000CCE0010008B5044B1BB10449FC
:10C270000448AFF30080BDE80840CFE700000000AD
:10C2800084120020CCE00100A3F5803A704700BF83
:10C29000154B002B08BF114B9D46FFF7F5FF002102
:10C2A0008B460F461148124A121A01F0D9FD0C4B69
:10C2B000002B00D098470B4B002B00D09847002054
:10C2C000002104000D000B4801F072FD01F0A4FDF7
:10C2D0002000290000F04EF901F070FD0000080078
:10C2E000000000000000000000000220801200207A
:10C2F00058140020E5DD0100014B00221A70704740
:10C300009C120020014B00221A707047AC120020D2
:10C31000304B1B78002B48D0F0B52F490A7885B0F8
:10C320009AB12E482E4B02880A3292B2B2F57A7F29
:10C3300002803BD21B682B490020C1E90000032B7F
:10C3400026D8DFE803F042404424244C23880A2BFB
:10C3500033D8254F224E3D683368244822806C1C18
:10C3600001250D7050F823103C608C42E3DB3A60ED
:10C3700001335A4202F0030203F0030358BF534251
:10C3800050F82320002AF3D033600022D3E7CA807C
:10C39000174B0FCB6C4684E80F0021460023012287
:10C3A000144800F0B3FB05B0F0BD70474FF47A724B
:10C3B00000241B6802800C70BDE7A3F10A0292B250
:10C3C000074B2280B6E74A80E2E70A80E0E78A80EE
:10C3D000DEE700BFE4110020D8110020A4120020E5
:10C3E000A8120020B0120020A012002080E001005E
:10C3F00058E00100DC11002070B51E4B1C7884B0A1
:10C400000CB104B070BD22461B48012540F6CD4159
:10C410001D7001F035FA194B1A783AB942F266618B
:10C4200017481D7001F02CFA04B070BD14481C7040
:10C4300001F080FA134B1A7882F001021A701B780F
:10C4400003F0FF0633B1224652210F4801F018FADB
:10C4500004B070BD0C4801F06DFA0C4B0FCB6C466C
:10C4600084E80F00214633462A46094800F04EFB77
:10C4700004B070BD9C12002098110020AC12002066
:10C48000B8110020E4110020E811002058E001005C
:10C49000DC11002070B5124B124E134D93E80700CB
:10C4A00084B0002401AB83E8070019462246042328
:10C4B0000E488DF809308DF80A400196039500F07A
:10C4C000B5F90B4B0B4A1C605C6001210A4801F076
:10C4D000C1F922465221094801F0D2F904B070BDD9
:10C4E00068E001000608290CE8030200DC110020C6
:10C4F000B012002011C3010090E00100E8110020FB
:10C5000030B583B000F034FC10B3134B1349DB6932
:10C51000134A0C201D0CC1F81807032401A926207A
:10C52000ADF804308DF806508DF8054000F02AFC77
:10C530000121262000F0D6FC0A4A0B48002101F018
:10C5400089F90A4A0A48002101F084F903B030BD94
:10C5500000F0B8FBD9E700BF58E00100000300502D
:10C56000F9C30100F9C2010078E0010005C3010030
:10C570007CE0010008B5002000F0F4FE00F0FEFEB3
:10C580004FF08043D3F81824D203FBD501F02CF9E7
:10C59000FFF780FFFFF7B4FF20BFFDE70649074A1A
:10C5A000074B9B1A03DD043BC858D050FBDC00F05E
:10C5B00013F8FFF76DFE0000D8E00100981100208D
:10C5C00080120020FEE7FEE7FEE7FEE7FEE7FEE75B
:10C5D000FEE7FEE7FEE7FEE710B4814B1B68082B81
:10C5E00021D0804AD2F8883043F47003C2F88830F2
:10C5F000BFF34F8FBFF36F8F794B1B68082B00F091
:10C60000AA804FF01023D3F80022002AC0F2B6808F
:10C61000D3F80432002BC0F2B180734B734A1A6016
:10C620005DF8044B70474FF080414FF0805200207E
:10C63000C1F80C016E4BC1F81001C1F83805D2F8F1
:10C640000414C3F82015D2F80814C3F82415D2F83E
:10C650000C14C3F82815D2F81014C3F82C15D2F80E
:10C660001414C3F83015D2F81814C3F83415D2F8DE
:10C670001C14C3F84015D2F82014C3F84415D2F89E
:10C680002414C3F84815D2F82814C3F84C15D2F86E
:10C690002C14C3F85015D2F83014C3F85415D2F83E
:10C6A0003414C3F86015D2F83814C3F86415D2F8FE
:10C6B0003C04C3F868054F49D2F84004C3F86C0540
:10C6C0000968D2F84424C3F87025052937D84A4BA5
:10C6D0005B5C13B1494B4A4A1A604A4B5B5C63B1DD
:10C6E0003F4B49491B68434AFB20C1F81805082BFA
:10C6F00011687FF476AF052921D8444B5B5C93B178
:10C700004348444B364C02681B682468394922F080
:10C710000F0203F00F031343082C096803607FF432
:10C7200060AF05290BD83C4B5B5C43B12C4B3B4ABB
:10C730001B684FF40071082B11607FF452AF4FF06B
:10C740008043D3F80024D2077FF54BAF6FF001028E
:10C75000C3F8002445E7274B1B68052B08D94FF089
:10C7600010224FF08043D2F80822C3F8582548E73A
:10C770002B4AD35C002B3FF444AFF0E7294A012356
:10C78000C2F80435D2F80034002BFBD04FF0102350
:10C790001221244AC3F80012D2F80034002BFBD037
:10C7A0004FF0102312211F4AC3F80412D2F80034AC
:10C7B000002BFBD000231B49C2F80435D1F800340C
:10C7C000002BFBD0BFF34F8F0649174BCA6802F40A
:10C7D000E0621343CB60BFF34F8F00BFFDE700BFA4
:10C7E0003001001000ED00E0081200200090D0039E
:10C7F00000C00040340100109CE001008C56004055
:10C80000488103009CE0010000F000409CE0010032
:10C81000E40E0040580200109CE0010040960240E7
:10C8200094E0010000E001400400FA05F0B5B34BCC
:10C83000047903EBC40589B02D79002D40F0FF8009
:10C8400043F834200D78FF2D4FEAC40C45D025F075
:10C8500080042E06049400F115811F2C40F2FA800A
:10C86000A74F05F01F0E012606FA0EF6C7F80C6555
:10C870001F2C00F2FB804FF0A04504F5E074032666
:10C8800045F824604E78FF2E2DD18E784FF0FF347E
:10C89000FF2E059445D026F080043706069400F15B
:10C8A00015811F2C40F2CE80954F06F01F0E0125FA
:10C8B00005FA0EF5C7F80C551F2C00F2D3804FF087
:10C8C000A04504F5E074032645F82460CE78FF2ED9
:10C8D0002DD14FF0FF34079448E04E784FF0FF34ED
:10C8E000FF2E0494D1D026F080043506059400F183
:10C8F000E2801F2C40F2AA80814F06F01F0E012516
:10C9000005FA0EF5C7F80C551F2C00F2A7804FF062
:10C91000A04504F5E074032645F824608E78FF2EC8
:10C92000B9D1CE784FF0FF34FF2E0694D1D026F047
:10C9300080043506079400F1B0801F2C87BF704F2C
:10C9400006F01F0EA6464FF0A047012505FA0EF58A
:10C95000C7F80C551F2C86BF06F01F04684D4FF01A
:10C96000A04504F5E074032645F82460DDE904766B
:10C970000468069DC4F86075C4F86465C4F8685519
:10C98000079DC4F86C5504680125C4F80055046877
:10C990008E790D894F79C4F80C75C4F80465C4F814
:10C9A000085504684D89C4F8105505680024C5F879
:10C9B00000420568C5F800430568C5F81C41D5F874
:10C9C0001C6105680496049EC5F81041D5F81061F5
:10C9D00005680396039EC5F81441D5F814610568EF
:10C9E0000296029EC5F80441D5F804410194019CC9
:10C9F000FAB104680A7944F3073100294FEA143484
:10CA000038DB01F1604101F561415201D2B281F898
:10CA10000023026842F3073100294FEA123208DB93
:10CA2000384C0120490902F01F0200FA02F244F8D2
:10CA300021206344012200201A7109B0F0BD0820B2
:10CA400009B0F0BDA6464FF0A04730E7A6464FF02C
:10CA5000A04754E7A6464FF0A04704E7284D06F04C
:10CA60001F0456E7264D06F01F042AE705F01F04B1
:10CA7000234D02E7244904F00F0452012144D2B2AD
:10CA80000A76C6E71F2C2CD8A6464FF0A0470126F1
:10CA900006FA0EF6C7F80865EAE61F2C87BF184F9E
:10CAA00006F01F0EA6464FF0A047012505FA0EF529
:10CAB000C7F808554EE71F2C17D8A6464FF0A047D9
:10CAC000012505FA0EF5C7F808551DE71F2C10D8EB
:10CAD000A6464FF0A047012505FA0EF5C7F8085500
:10CAE000EAE6074F05F01F0ED1E7054F06F01F0ECF
:10CAF000E6E7034F06F01F0EEDE700BFB812002077
:10CB00000003005000E100E0FCEC00E0F0B4046839
:10CB10000E680579C4F820658E88C4F824658E688F
:10CB2000C4F82865CE68C4F82C6504680E68C4F89B
:10CB300040658E88C4F844658E68C4F84865C96845
:10CB4000C4F84C15046802F0010101EB5202C4F86C
:10CB50001425DA0782B03FD413F002023ED10468F4
:10CB6000002914BF0C260826C4F80022D9B2254C8F
:10CB700004EBC50254F83540517102251571D4B14A
:10CB800001F00402002A01F0080C03BF2F46A22284
:10CB90002224B2220FBF8225322492251227BCF113
:10CBA000000F04BF2A463C46056811F0100F18BF5D
:10CBB0002246C5F8002301680022C1F80421D1F8FB
:10CBC000041101911B06019910D40368012110463C
:10CBD000995102B0F0BC70471022C0E759B1026809
:10CBE0000821C2F800120C26D9B2C0E70068304410
:10CBF00002B0F0BC704702680421C2F80012082697
:10CC0000D9B2B4E7B812002000B52C4BD3F81021EC
:10CC100085B052B100212A4AC3F81011D3F810117F
:10CC2000537903910399590741D4244BD3F8142124
:10CC300052B10021224AC3F81411D3F814115379C8
:10CC400002911B0702992CD41C4BD3F81C215AB11A
:10CC50001B4A0021C3F81C115079D3F81C310193F1
:10CC600010F01000019B17D0144BD3F8042182B1AF
:10CC7000134A0021C3F80411D3F80411136800917A
:10CC800001210098117123B1032005B05DF804EB78
:10CC9000184705B05DF804FB1368002BE4D09847F3
:10CCA000E2E71368002BCFD002209847CCE7136847
:10CCB000002BBAD001209847B7E700BF00C0014061
:10CCC000B8120020F0B5254C94F85B3083B0002BEF
:10CCD00041D14FF6FF70FF255A09012A0CBF0246C9
:10CCE0004FF0FF3203F01F01CA40D20748BFE218DD
:10CCF00003F1010348BF82F82450302BECD14FF0F0
:10CD0000FF334FF0FF364FF0FF3706220021144863
:10CD10002362C4E9003384F85430C4E90267C4E9EB
:10CD20000467C4E9066701F09BF80E4BC02283F844
:10CD3000062340221A600C4B0C4A002018601B6826
:10CD40000193019D01214FF0004384F85B10C2F86C
:10CD5000043303B0F0BD082003B0F0BDC0120020C2
:10CD60001513002000E100E07C61004000600040FD
:10CD7000034B93F85B00003818BF0120704700BFD9
:10CD8000C0120020F0B4544B1C1894F92450002D0C
:10CD900068DA8D78AF071DD51D68013500F09680E3
:10CDA0005C6801347ED09C68013400F08380DC68CC
:10CDB000013400F081801C6901347FD05C6901344A
:10CDC0007ED09C6901347DD0DC6901347CD00420A4
:10CDD000F0BC70471D6A0135F9D1082584F824504C
:10CDE0001A6283F854002C468A7855071AD4D6075D
:10CDF00047D41F284D7887BF384E00F01F020246E7
:10CE00004FF0A04602F5E072AD0046F82250344ED5
:10CE1000C50800F0070C775D012202FA0CF23A43D4
:10CE200072558A7812F002021FD0A30003F18043EA
:10CE300003F5C0430978D3F8104524F44F3424F4A3
:10CE40004074C3F8104502020904D3F8100501F438
:10CE5000403102F47C520A430243C3F810250020FB
:10CE6000F0BC70470820F0BC7047083C23440878A9
:10CE700093F8541041EA801183F854101046F0BC26
:10CE800070471F2887BF154A00F01F0505464FF061
:10CE9000A04202EB8502D2F8005725F00205C2F845
:10CEA0000057B4E701241D1843F8242064B285F824
:10CEB000244099E70224F6E70324F4E70424F2E788
:10CEC0000524F0E70624EEE70724ECE7002584F8C4
:10CED00024501A602C4687E7C0120020000300503F
:10CEE0001513002070B4324C251883B095F9243006
:10CEF000072B22DD234493F84C309B09032B46D0AB
:10CF0000012B0CBF4FF400324FF440321F288ABF70
:10CF1000284B4FF0A04300F01F0003EB8000D0F837
:10CF2000003723F44033C0F80037D0F800371A43F5
:10CF3000C0F8002703B070BC7047DAB2072AF9D8EE
:10CF4000980000F1804000F5C04003F140029200DB
:10CF5000D0F8106592B202F1804202F5C04246F06C
:10CF60000106C0F810650020106012680192019A55
:10CF70000029DFD095F9242054F82220002AD9D0A6
:10CF80000D49012202FA03F3C1F80433D2E71F2846
:10CF90008ABF084A4FF0A04200F01F03D2F81025C4
:10CFA00098BF0346DA4002F0010202321204ADE7F4
:10CFB000C012002000030050006000402DE9F0473F
:10CFC000002384B0CDE902339B4A1168012900F0A7
:10CFD00027811E46994B1A68012A00F01381984B4D
:10CFE0001A68012A00F00081964B1A68012A00F0A5
:10CFF000ED80954B1A68012A00F0DA80934B1A688D
:10D00000012A00F0C780924B1A68012A00F0B48010
:10D01000904B1A68012A00F0A1808F4B1A68012AF0
:10D0200003D0C6B904B0BDE8F08700221A601B68BF
:10D0300001934FF0A042019BD2F82015874B02913B
:10D04000C2F82015D3F82025039246F00041C3F81A
:10D050002025EEB10E46824F01250024A30003F1E6
:10D060008043354203F5C0434FEA45050BD0D3F862
:10D07000100557F82420D3F81015C0F30520C1F38C
:10D08000014102B190470134082CE7D1002EC9DAE2
:10D09000734E724C01274FF0A04596F95400431C83
:10D0A00045D0C0F3C20204AB1A4400F0070312F8E3
:10D0B000082C07FA03F31A42C1B200F03F0036D041
:10D0C0001F2887BF01F01F02A14602464FF0A0496A
:10D0D00009EB820306EB000ED3F800C7D3F80087F4
:10D0E00028F44038C3F80087CCF3014C9EF9248023
:10D0F000D3F800E756F82880BCF1020F0CBF4FF4BC
:10D10000403A4FF4003A07FA02F24EEA0A0EC3F828
:10D1100000E7C9F82025B8F1000F08D089090329D4
:10D1200016D0BCF1020F15D0BCF1030F0ED0D5F80C
:10D1300020250292C5F82025D4F820350393C4F8A1
:10D1400020351343A9D104B0BDE8F0870229EED100
:10D15000C047ECE70129EAD1C047E8E7414AD2F8E5
:10D16000042312067FF559AF00221A601B68009352
:10D17000009B46F0800650E73A4AD2F80423510655
:10D180007FF546AF00221A601B680093009B46F0B3
:10D1900040063DE7334AD2F8042390067FF533AFCB
:10D1A00000221A601B680093009B46F020062AE7C5
:10D1B0002C4AD2F80423D4067FF520AF00221A604F
:10D1C0001B680093009B46F0100617E7254AD2F82B
:10D1D000042315077FF50DAF00221A601B6800932A
:10D1E000009B46F0080604E71E4AD2F804235707BE
:10D1F0007FF5FAAE00221A601B680093009B46F090
:10D200000406F1E6174AD2F8042392077FF5E7AE49
:10D2100000221A601B680093009B46F00206DEE6BF
:10D220001049D1F8046316F001063FF4D3AE136041
:10D2300013680093009BCDE600610040046100404C
:10D24000086100400C610040106100401461004022
:10D25000186100401C6100407C61004000030050E8
:10D26000C01200200060004010B54FF0804386B02F
:10D27000D3F80443620705D5D3F8082103F5847376
:10D28000002A4ED1A30603D52A4B1A68002A3FD1A3
:10D29000600603D5284B1A68002A2FD1210602D533
:10D2A000264B1A680ABBE20502D5254B1A6892B9CB
:10D2B000A3050ED5234B1A685AB100221A601A68CA
:10D2C000214B0592059A1B68022006B0BDE810406C
:10D2D000184706B010BD00221A601B4A1B68049351
:10D2E00001201368049A9847E2E700201860164A64
:10D2F0001B6803931368039A9847D4E700221A60C7
:10D30000124A1B68029301201368029A9847C5E7E6
:10D31000002018600D4A1B6801931368019A984712
:10D32000B6E700221A600A4A1B6800931368009A45
:10D330009847A7E714010040180100401C01004075
:10D34000200100402401004024130020201300206D
:10D350001C13002008B5FFF787FFBDE8084000F068
:10D3600025B800BF044A137923B9012110609180C8
:10D3700018467047852070472813002010B4094BC9
:10D38000094A0021196083B01B680193019C4FF08A
:10D39000804102200123C1F80403136003B05DF84B
:10D3A000044B7047040100400800004010B5174BC3
:10D3B0001A6882B062B10021154A19601B68507961
:10D3C00000934FF080410123009CC1F8083398B1CD
:10D3D000104B1A68BAB100221A601B6801934FF013
:10D3E000804202210A4B0198C2F808131B680120F1
:10D3F00002B0BDE810401847116853718847054BCB
:10D400001A68002AE7D102B010BD00BF0001004039
:10D41000281300200401004072B6024A1368013349
:10D420001360704730130020034A1368013B1360F8
:10D4300003B962B6704700BF30130020D0E9022361
:10D44000D1E90201994208BF90422CBF012000207F
:10D45000704700BF2DE9F04F87B0064600F09AFBF9
:10D4600040B1B04AD2E9003113F1807341F10001BB
:10D47000C2E900310021304600F0A8FBAA4C60B39D
:10D48000236853B3A94B25681B7823B31DB3A84861
:10D4900000F0ACFBA34BA749D3E90023D1E90089F5
:10D4A000121843F100034B4508BF424503D212F165
:10D4B000807243F10003D5E902018B4208BF82422A
:10D4C00080F05C81013108BFB0F1FF3F03D09A4882
:10D4D000294600F041FC002323600121304600F082
:10D4E00075FB002840F02E81944805A900F0F4FB5C
:10D4F00078B3924D4FF0FF384FF0FF390BE0002B1F
:10D5000000F0968005A9284600F016FC05A92846DB
:10D5100000F0E2FBE8B10378012B11D0022BEED131
:10D52000854F384600F02CFC30B1C0E902893846FE
:10D5300000F026FC0028F8D17C4B01221A70E1E7AC
:10D5400041682368994200F0B7807B4800F022FCD4
:10D55000D8E7DFF8E481764FDFF8C891404600F065
:10D5600015FC002859D0D0E90223591C08BFB2F19C
:10D57000FF3F59D0216891B12168D1E902018B4266
:10D5800008BF82424DD22368D3E90223013308BF8A
:10D59000B2F1FF3F03D02168404600F0DDFB40467A
:10D5A00000F0EEFB05463846AA68EB68039202934A
:10D5B00000F01CFBD9E900AB5E4BD3E900231AEB6A
:10D5C000000A4BF1000B9B4508BF9245DDE9023292
:10D5D00003D21AF1807A4BF1000BB2EB0A0163EB34
:10D5E0000B0301930091DDE90001012871F10003B3
:10D5F0002BDBB0F5350F59D24FF496030021384696
:10D6000000F042FA00284BD00D2822D000234046DB
:10D61000236000F0BBFB0028A5D12368002B00F09D
:10D62000A98007B0BDE8F08F404600F0A9FB95E760
:10D630004168D1E90223013308BFB2F1FF3F3FF453
:10D6400061AF3D4800F088FB5CE70021384600F000
:10D65000B1FA364B1B78002BD8D0384600F0C6FA0A
:10D66000D9E900233349D1E900AB121843F1000393
:10D670005B4508BF524503D212F1807243F10003AB
:10D68000D5E902018B4208BF82421CD2013108BF9A
:10D69000B0F1FF3FBAD02946404600F05DFBB5E748
:10D6A000236863B1256007B0BDE8F08F384600F00D
:10D6B0009DFA234A02449FE70023236022E7304675
:10D6C00000F0B4F9EEE70020FFF7A6FE2B692BB9B6
:10D6D0004FF0FF324FF0FF33C5E902230020FFF780
:10D6E000A3FED5E9053098470020FFF795FE2B698A
:10D6F0009BB1D5E902014A1C08BFB0F1FF3F0CD035
:10D70000C01841F10001C5E902010020FFF78CFEBD
:10D710002946404600F020FB78E70020FFF784FE12
:10D7200074E700BF38130020B81300204013002016
:10D730000C120020B0130020A8E001009C13002070
:10D74000FFFFB4002448254D00F050FA244BD3E9E4
:10D750000089D5E9002318EB000849F10009994533
:10D7600008BF904503D218F1807849F10009C5E956
:10D770000089B9E6304600F05DF952E70020FFF776
:10D780004BFE2B692BB94FF0FF324FF0FF33C5E949
:10D7900002230020FFF748FED5E905309847002016
:10D7A000FFF73AFE2B699BB1D5E902014F1C08BF78
:10D7B000B0F1FF3F0CD0C01841F10001C5E90201F2
:10D7C0000020FFF731FE0748294600F0C5FA82E63F
:10D7D0000020FFF729FE7EE60C120020B013002087
:10D7E00038130020A8E0010010B5134B13491B6843
:10D7F000134882B058220193082300F017FA044618
:10D8000010B1204602B010BD0E4A0F4801A900F029
:10D81000C9F804460028F4D10B48012100F0B0F902
:10D8200001231946094A084800F008F9084B01226B
:10D8300020461A7002B010BDA4E00100441300207D
:10D840009C13002055D401000C120020FFFF7F0024
:10D85000401300208AB130B4A1F101010368B1FA8C
:10D8600081F14FF0FF344FF0FF354909C3E904124D
:10D87000C3E90245002030BC70470720704700BF55
:10D880002DE97043044682B0002016460D46FFF78E
:10D89000C3FDD4E90223013308BFB2F1FF3F06D034
:10D8A0000020FFF7C1FD002002B0BDE870831D48D5
:10D8B00000F09CF91C4B1D49D3E90023D1E90089F4
:10D8C000121843F100034B4508BF424524D35219B7
:10D8D00043F10003C4E902230020FFF7A5FD2369FB
:10D8E000A66103B12561124801A900F0B7F978B12A
:10D8F00000254460057001A90D4800F0DDF90028FD
:10D90000D2D0084800F076F9284602B0BDE870830E
:10D91000042002B0BDE8708312F1807243F100036D
:10D92000D5E700BF0C12002038130020B0130020F0
:10D930009C13002010B5044682B00020FFF76CFD58
:10D94000D4E90223013308BFB2F1FF3F1AD04FF0F0
:10D95000FF324FF0FF330020C4E90223FFF764FDDC
:10D960000E4801A900F07AF948B101234460037020
:10D9700001A90A4800F0A0F950B902B010BD042076
:10D9800002B010BD0020FFF74FFD002002B010BD17
:10D99000034800F02FF9002002B010BD9C130020B6
:10D9A0000C12002070B41D4C43791D4E04EBC305CE
:10D9B00046F823202D7975BB03680A88C3F808252B
:10D9C00090F904308A78002B1DDB03F1604303F5E6
:10D9D00061435201D2B283F8002390F90430002B46
:10D9E00007DB104903F01F0501225B09AA4041F83B
:10D9F0002320437904EBC3020121117144F8330061
:10DA0000002070BC7047084903F00F03520119440D
:10DA1000D2B20A76E1E7082070BC7047BC13002040
:10DA2000C413002000E100E0FCEC00E003680122E8
:10DA30001A607047036801225A607047F0B40468A6
:10DA40004FF480358D40C4F80853066801F1500446
:10DA5000C6F84853A4000668A4B20027375182B024
:10DA600036590468019601F5A87122F07F42019EA3
:10DA700044F821200268C2F8445313B10368C3F884
:10DA8000045302B0F0BC70472DE9F04704464FF450
:10DA9000803600688E40C0F848632068C0F808638C
:10DAA000206800EB81058A46D0F80415D5F84005BA
:10DAB000C5F840150AF15005AD002768ADB24FF02A
:10DAC000000847F8058082B0401A7F59009720F07F
:10DAD0007F40012822F07F479946009A41D0226872
:10DAE000D2F80455C2F844637A1B22F07F42012A1F
:10DAF0000AF5A87125D0226842F821702068D0F874
:10DB000004557A1BC9F1FF13013A03F57F4322F054
:10DB10007F42934211D342B1C0F84463236800208E
:10DB2000C3F8046302B0BDE8F087013740F8217004
:10DB30002068D0F804359D42EED00D2002B0BDE83B
:10DB4000F08720680D4B013740F8217043F0010346
:10DB50004FF4806098472068D0F804359D42DBD0B0
:10DB6000EBE7064A4FF4806042F0010290472268DA
:10DB700042F8058052590192019AB0E7C0E00100D5
:10DB800002680223C2F8443311B10268C2F80433B8
:10DB9000704700BF0368D3F8040100B97047002242
:10DBA00082B0C3F80421D3F804310193019B012012
:10DBB00002B0704702684FF4803303FA01F1C2F8F3
:10DBC00048130368C3F80813704700BF5031890039
:10DBD000036889B2585800B9704700225A5082B081
:10DBE0005B580193019B012002B070470368D3F892
:10DBF0000405704790F90430002B09DB5A090548E9
:10DC0000403203F01F03012101FA03F340F82230F0
:10DC1000704700BF00E100E0024A034B10681B6838
:10DC2000184700BFBC130020C413002099B110B4E2
:10DC3000B2FBF3F403FB1424A4B244B9C0E900140A
:10DC400084608281C38120465DF8044B70470920BF
:10DC50005DF8044B70470E20704700BF30B482B0AF
:10DC600050E8013F9DB2C48925448489A54228BF5C
:10DC70002D1B0489A54202BFBFF32F8F002207E0AE
:10DC8000C5EA030540E80154002CE9D14FF0010238
:10DC90008DF803200193019B9DF803200B602AB1AE
:10DCA0000B880068184402B030BC704702F0FF03D4
:10DCB000184602B030BC70470A884B889A4201D09F
:10DCC0000020704750E8012FC2EA024240E80123D9
:10DCD000002BF7D10120704730B482B050E8023FEA
:10DCE0001FFAA3F5C488A54202BFBFF32F8F0022FD
:10DCF0000DE0C48925448489A54228BF2D1BC3EAB1
:10DD0000054540E80254002CE8D14FF001028DF89F
:10DD100003200193019B9DF803200B602AB14B88DF
:10DD20000068184402B030BC704702F0FF03184688
:10DD300002B030BC704700BF0A884B889A4201D0BD
:10DD40000020704750E8022FC2EA224240E8022336
:10DD5000002BF7D10120704770B544680646206853
:10DD60000D4618B908E02468206828B1B368294630
:10DD700098470028F7D120682860256070BD00BF53
:10DD80004368186808B102681A60704743681868E9
:10DD9000704700BF4368186818B908E00346006878
:10DDA00028B18142FAD10A681A6001207047704791
:10DDB000002301461A46184600F0A2B808B5074BE2
:10DDC000044613B1002100F0EBF8054B1868836A94
:10DDD00003B19847204600F031F900BFA1DF0100F0
:10DDE000C8E0010038B50A4C0A4D641BA4100AD0E3
:10DDF00004F18043013B05EB8305013C55F80439F0
:10DE00009847002CF9D1BDE8384000F01FB900BF99
:10DE1000801200207C12002070B50D4E0D4D761B37
:10DE2000B61006D00024013455F8043B9847A642AA
:10DE3000F9D1094E094D761B00F002F9B61006D053
:10DE40000024013455F8043B9847A642F9D170BD2F
:10DE500078120020781200207C1200207812002016
:10DE6000F0B4860746D0541E002A3CD0CAB20346FE
:10DE700002E014F1FF3436D303F8012B9D07F8D1EB
:10DE8000032C29D9CDB245EA05250F2C45EA0545D5
:10DE900033D9A4F11006360903F1200707EB061762
:10DEA00003F1100242E9045542E902551032BA4228
:10DEB000F8D1721C14F00C0F03EB021204F00F06E1
:10DEC00013D0331F23F003030433134442F8045BDD
:10DED0009342FBD106F003042CB1C9B21C4403F8F1
:10DEE000011B9C42FBD1F0BC704734461346002C0A
:10DEF000F3D1F8E714460346C2E71A462646E0E7A0
:10DF00002DE9F843224C25680DB36C681F2C3BDCCF
:10DF1000984691460F46064688B1D5F8880028B342
:10DF2000D0F8003140F824900122A24000EB840197
:10DF30001343022EC0F80031C1F8808010D0A31C1A
:10DF400001346C6045F823700020BDE8F883114E61
:10DF5000114D2560002ED8D03468C5F88840D4E72C
:10DF6000D0F804311A43C0F80421E8E70B4B5BB149
:10DF70004FF48470AFF3008030B100236C68C0E9C7
:10DF80004033C5F88800CDE74FF0FF30DDE700BF34
:10DF90005414002000000000C813002000000000FE
:10DFA0002DE9F04FDFF8908083B0D8F80050019051
:10DFB0000F464FF0010A8DB16C68D5F88860013CBE
:10DFC0000CD405F1080B67B12EB106F1800353F8AC
:10DFD0002430BB4205D014F1FF34F4D203B0BDE8C5
:10DFE000F08F6B685BF82420013BA34216BF00232F
:10DFF0006C604BF82430002AEDD0D5F80490B6B10F
:10E00000D6F800110AFA04F30B4210D0D6F8040136
:10E0100056F8241003420CD1019890476B68D8F849
:10E0200000204B4501D1AA42D5D01546C3E7904701
:10E03000F4E708469047F1E754140020FEE700BFDC
:10E04000F8B500BFF8BC08BC9E467047F8B500BFE5
:10E05000F8BC08BC9E467047B012002004000000C7
:10E0600000000000000000001F1F1F1F060400002A
:10E07000E80300000200020098110020B8110020FF
:10E080000600000005000000070000000700000077
:10E09000E811002000000000010100000100000064
:10E0A0000000000001000600000000003413002002
:10E0B0003DD401000000000000000000000000004E
:10E0C0000338FDD87047000018120020000000003F
:08E0D000B8E1FF7F0100000030
:10E0D8000000000000000000FFFFFFFFFFFFFFFF40
:10E0E8000000000000000000000000000000000028
:10E0F8000000000000000000FFFFFFFFFFFFFFFF20
:10E108000000000000000000000000000000000007
:10E118000100000000C001400000000001000000F4
:10E128000000000000000000FFFFFFFFFFFFFFFFEF
:10E1380000000000000000000000000000000000D7
:10E148000090D003001001401100040018120020B4
:10E1580000000000000000000000000000000000B7
:10E1680000000000000000000000000000000000A7
:10E178000000000000000000000000000000000097
:10E188000000000000000000000000000000000087
:10E198000000000000000000000000000000000077
:10E1A8000000000000000000000000000000000067
:08E1B80069C2010041C201002F
:040000031000C59D87
:00000001FF
