:020000021000EC
:10C0000000000220F9C2010021C3010023C3010086
:10C0100025C3010027C3010029C30100000000005F
:10C020000000000000000000000000002BC3010021
:10C030002DC30100000000002FC3010031C3010027
:10C0400033C3010033C3010033C3010033C3010014
:10C0500033C3010033C3010033C3010033C3010004
:10C0600033C3010033C3010033C3010033C30100F4
:10C0700033C3010033C3010033C3010033C30100E4
:10C0800033C3010033C3010033C3010033C30100D4
:10C0900033C3010033C3010033C3010033C30100C4
:10C0A00033C3010033C3010033C3010033C30100B4
:10C0B00059C8010033C30100000000000000000067
:10C0C00033C3010033C3010033C3010033C3010094
:10C0D00033C3010033C3010033C3010033C3010084
:10C0E00033C3010033C3010033C30100000000006B
:10C0F0000000000033C301000000000033C3010052
:10C10000000000000000000000000000000000002F
:10C11000000000000000000000000000000000001F
:10C12000000000000000000000000000000000000F
:10C1300000000000000000000000000000000000FF
:10C1400000000000000000000000000000000000EF
:10C1500000000000000000000000000000000000DF
:10C1600000000000000000000000000000000000CF
:10C1700000000000000000000000000000000000BF
:10C1800000000000000000000000000000000000AF
:10C19000000000000000000000000000000000009F
:10C1A000000000000000000000000000000000008F
:10C1B000000000000000000000000000000000007F
:10C1C000000000000000000000000000000000006F
:10C1D000000000000000000000000000000000005F
:10C1E000000000000000000000000000000000004F
:10C1F000000000000000000000000000000000003F
:10C200000348044B834202D0034B03B118477047E5
:10C2100030120020301200200000000005480649BE
:10C220000B1AD90F01EBA301491002D0034B03B144
:10C230001847704730120020301200200000000024
:10C2400010B5064C237843B9FFF7DAFF044B13B15E
:10C250000448AFF300800123237010BD301200208A
:10C26000000000002CCE010008B5044B1BB10449AE
:10C270000448AFF30080BDE80840CFE700000000AD
:10C28000341200202CCE0100A3F5803A704700BF85
:10C29000154B002B08BF114B9D46FFF7F5FF002102
:10C2A0008B460F461148124A121A00F0B5FC0C4B8F
:10C2B000002B00D098470B4B002B00D09847002054
:10C2C000002104000D000B4800F04EFC00F080FC43
:10C2D0002000290000F048F800F04CFC00000800A5
:10C2E00000000000000000000000022030120020CA
:10C2F000EC1200209DCB01000649074A074B9B1A10
:10C3000003DD043BC858D050FBDC00F003FBFFF713
:10C31000BFFF000038CE010098110020301200202D
:10C32000FEE7FEE7FEE7FEE7FEE7FEE7FEE7FEE7E5
:10C33000FEE7FEE730B585B0084B094D0948019589
:10C34000002240F2074401A98DF80A20ADF8084008
:10C35000039300F093F805B030BD00BFFF0002006A
:10C360000608290CA81100202DE9F04F83B0FFF733
:10C37000E1FF3B4B3B4A3C4CDFF8F8A00C21002589
:10C38000019542F00109C3F818170093009BD3F8F8
:10C3900010355906FAD4009BD3F810355A06F5D457
:10C3A000DFF8D480314F0026AAFB0623C3F30F1316
:10C3B000032D04D8DFE805F024262202E3800223BF
:10C3C00001224146384600F0C9F94FF0040B4FF402
:10C3D0007A40C847BBF1010BF9D1FF3643F2CD23B8
:10C3E0009E42E1D143F2CE16AAFB0623C3F30F13FC
:10C3F000032D0AD8DFE805F030322E08A380DEE7EF
:10C400002380DCE76380DAE7E380022301224146F0
:10C41000384600F0A3F94FF0040B4FF47A40C847B8
:10C42000BBF1010BF9D1FF3E16F1FF0FDCD1104B30
:10C4300053F82520019B01339A42019304DC013516
:10C4400005F00305CDF804B0009BD3F810355B066A
:10C450009CD4A8E7A380D8E72380D6E76380D4E7FD
:10C460000003005010CE01004C120020A811002043
:10C47000981100201F85EB51B0110020F0B5B34B8F
:10C48000047903EBC40589B02D79002D40F0FF80BD
:10C4900043F834200D78FF2D4FEAC40C45D025F029
:10C4A00080042E06049400F115811F2C40F2FA80BE
:10C4B000A74F05F01F0E012606FA0EF6C7F80C6509
:10C4C0001F2C00F2FB804FF0A04504F5E07403261A
:10C4D00045F824604E78FF2E2DD18E784FF0FF3432
:10C4E000FF2E059445D026F080043706069400F10F
:10C4F00015811F2C40F2CE80954F06F01F0E0125AE
:10C5000005FA0EF5C7F80C551F2C00F2D3804FF03A
:10C51000A04504F5E074032645F82460CE78FF2E8C
:10C520002DD14FF0FF34079448E04E784FF0FF34A0
:10C53000FF2E0494D1D026F080043506059400F136
:10C54000E2801F2C40F2AA80814F06F01F0E0125C9
:10C5500005FA0EF5C7F80C551F2C00F2A7804FF016
:10C56000A04504F5E074032645F824608E78FF2E7C
:10C57000B9D1CE784FF0FF34FF2E0694D1D026F0FB
:10C5800080043506079400F1B0801F2C87BF704FE0
:10C5900006F01F0EA6464FF0A047012505FA0EF53E
:10C5A000C7F80C551F2C86BF06F01F04684D4FF0CE
:10C5B000A04504F5E074032645F82460DDE904761F
:10C5C0000468069DC4F86075C4F86465C4F86855CD
:10C5D000079DC4F86C5504680125C4F8005504682B
:10C5E0008E790D894F79C4F80C75C4F80465C4F8C8
:10C5F000085504684D89C4F8105505680024C5F82D
:10C6000000420568C5F800430568C5F81C41D5F827
:10C610001C6105680496049EC5F81041D5F81061A8
:10C6200005680396039EC5F81441D5F814610568A2
:10C630000296029EC5F80441D5F804410194019C7C
:10C64000FAB104680A7944F3073100294FEA143437
:10C6500038DB01F1604101F561415201D2B281F84C
:10C660000023026842F3073100294FEA123208DB47
:10C67000384C0120490902F01F0200FA02F244F886
:10C6800021206344012200201A7109B0F0BD082066
:10C6900009B0F0BDA6464FF0A04730E7A6464FF0E0
:10C6A000A04754E7A6464FF0A04704E7284D06F000
:10C6B0001F0456E7264D06F01F042AE705F01F0465
:10C6C000234D02E7244904F00F0452012144D2B261
:10C6D0000A76C6E71F2C2CD8A6464FF0A0470126A5
:10C6E00006FA0EF6C7F80865EAE61F2C87BF184F52
:10C6F00006F01F0EA6464FF0A047012505FA0EF5DD
:10C70000C7F808554EE71F2C17D8A6464FF0A0478C
:10C71000012505FA0EF5C7F808551DE71F2C10D89E
:10C72000A6464FF0A047012505FA0EF5C7F80855B3
:10C73000EAE6074F05F01F0ED1E7054F06F01F0E82
:10C74000E6E7034F06F01F0EEDE700BF541200208E
:10C750000003005000E100E0FCEC00E0F0B40468ED
:10C760000E680579C4F820658E88C4F824658E6843
:10C77000C4F82865CE68C4F82C6504680E68C4F84F
:10C7800040658E88C4F844658E68C4F84865C968F9
:10C79000C4F84C15046802F0010101EB5202C4F820
:10C7A0001425DA0782B03FD413F002023ED10468A8
:10C7B000002914BF0C260826C4F80022D9B2254C43
:10C7C00004EBC50254F83540517102251571D4B1FE
:10C7D00001F00402002A01F0080C03BF2F46A22238
:10C7E0002224B2220FBF8225322492251227BCF1C7
:10C7F000000F04BF2A463C46056811F0100F18BF11
:10C800002246C5F8002301680022C1F80421D1F8AE
:10C81000041101911B06019910D4036801211046EF
:10C82000995102B0F0BC70471022C0E759B10268BC
:10C830000821C2F800120C26D9B2C0E700683044C3
:10C8400002B0F0BC704702680421C2F8001208264A
:10C85000D9B2B4E75412002000B52C4BD3F8102104
:10C8600085B052B100212A4AC3F81011D3F8101133
:10C87000537903910399590741D4244BD3F81421D8
:10C8800052B10021224AC3F81411D3F8141153797C
:10C8900002911B0702992CD41C4BD3F81C215AB1CE
:10C8A0001B4A0021C3F81C115079D3F81C310193A5
:10C8B00010F01000019B17D0144BD3F8042182B163
:10C8C000134A0021C3F80411D3F80411136800912E
:10C8D00001210098117123B1032005B05DF804EB2C
:10C8E000184705B05DF804FB1368002BE4D09847A7
:10C8F000E2E71368002BCFD002209847CCE71368FB
:10C90000002BBAD001209847B7E700BF00C0014014
:10C910005412002010B4814B1B68082B21D0804A90
:10C92000D2F8883043F47003C2F88830BFF34F8FD9
:10C93000BFF36F8F794B1B68082B00F0AA804FF074
:10C940001023D3F80022002AC0F2B680D3F80432B4
:10C95000002BC0F2B180734B734A1A605DF8044B30
:10C9600070474FF080414FF080520020C1F80C0119
:10C970006E4BC1F81001C1F83805D2F80414C3F8A1
:10C980002015D2F80814C3F82415D2F80C14C3F8F3
:10C990002815D2F81014C3F82C15D2F81414C3F8C3
:10C9A0003015D2F81814C3F83415D2F81C14C3F893
:10C9B0004015D2F82014C3F84415D2F82414C3F853
:10C9C0004815D2F82814C3F84C15D2F82C14C3F823
:10C9D0005015D2F83014C3F85415D2F83414C3F8F3
:10C9E0006015D2F83814C3F86415D2F83C04C3F8C3
:10C9F00068054F49D2F84004C3F86C050968D2F8BD
:10CA00004424C3F87025052937D84A4B5B5C13B121
:10CA1000494B4A4A1A604A4B5B5C63B13F4B4949F8
:10CA20001B68434AFB20C1F81805082B11687FF4E6
:10CA300076AF052921D8444B5B5C93B14348444B06
:10CA4000364C02681B682468394922F00F0203F053
:10CA50000F031343082C096803607FF460AF0529B6
:10CA60000BD83C4B5B5C43B12C4B3B4A1B684FF4EF
:10CA70000071082B11607FF452AF4FF08043D3F860
:10CA80000024D2077FF54BAF6FF00102C3F80024FA
:10CA900045E7274B1B68052B08D94FF010224FF0B4
:10CAA0008043D2F80822C3F8582548E72B4AD35CC4
:10CAB000002B3FF444AFF0E7294A0123C2F80435C4
:10CAC000D2F80034002BFBD04FF010231221244A5F
:10CAD000C3F80012D2F80034002BFBD04FF0102323
:10CAE00012211F4AC3F80412D2F80034002BFBD0E5
:10CAF00000231B49C2F80435D1F80034002BFBD0C9
:10CB0000BFF34F8F0649174BCA6802F4E062134324
:10CB1000CB60BFF34F8F00BFFDE700BF30010010B7
:10CB200000ED00E0C01100200090D00300C00040E4
:10CB30003401001020CE01008C56004048810300D3
:10CB400020CE010000F0004020CE0100E40E0040A5
:10CB50005802001020CE01004096024018CE01007D
:10CB600000E001400400FA05002301461A46184679
:10CB700000F0A2B808B5074B044613B1002100F03D
:10CB8000EBF8054B1868836A03B19847204600F01C
:10CB900031F900BF59CD010028CE010038B50A4C4B
:10CBA0000A4D641BA4100AD004F18043013B05EB3D
:10CBB0008305013C55F804399847002CF9D1BDE8AC
:10CBC000384000F01FB900BF301200202C120020A6
:10CBD00070B50D4E0D4D761BB61006D000240134F5
:10CBE00055F8043B9847A642F9D1094E094D761BEA
:10CBF00000F002F9B61006D00024013455F8043BC9
:10CC00009847A642F9D170BD2812002028120020B2
:10CC10002C12002028120020F0B4860746D0541EA3
:10CC2000002A3CD0CAB2034602E014F1FF3436D3E6
:10CC300003F8012B9D07F8D1032C29D9CDB245EA81
:10CC400005250F2C45EA054533D9A4F11006360910
:10CC500003F1200707EB061703F1100242E9045520
:10CC600042E902551032BA42F8D1721C14F00C0F8E
:10CC700003EB021204F00F0613D0331F23F003035B
:10CC80000433134442F8045B9342FBD106F00304DF
:10CC90002CB1C9B21C4403F8011B9C42FBD1F0BC6F
:10CCA000704734461346002CF3D1F8E71446034688
:10CCB000C2E71A462646E0E72DE9F843224C2568EC
:10CCC0000DB36C681F2C3BDC984691460F46064618
:10CCD00088B1D5F8880028B3D0F8003140F8249006
:10CCE0000122A24000EB84011343022EC0F8003160
:10CCF000C1F8808010D0A31C01346C6045F823700B
:10CD00000020BDE8F883114E114D2560002ED8D0CB
:10CD10003468C5F88840D4E7D0F804311A43C0F825
:10CD20000421E8E70B4B5BB14FF48470AFF3008054
:10CD300030B100236C68C0E94033C5F88800CDE706
:10CD40004FF0FF30DDE700BFE812002000000000D8
:10CD50005C120020000000002DE9F04FDFF8908009
:10CD600083B0D8F8005001900F464FF0010A8DB102
:10CD70006C68D5F88860013C0CD405F1080B67B1EC
:10CD80002EB106F1800353F82430BB4205D014F1D4
:10CD9000FF34F4D203B0BDE8F08F6B685BF8242059
:10CDA000013BA34216BF00236C604BF82430002ADD
:10CDB000EDD0D5F80490B6B1D6F800110AFA04F314
:10CDC0000B4210D0D6F8040156F8241003420CD1BF
:10CDD000019890476B68D8F800204B4501D1AA42D2
:10CDE000D5D01546C3E79047F4E708469047F1E7EA
:10CDF000E8120020FEE700BFF8B500BFF8BC08BC91
:10CE00009E467047F8B500BFF8BC08BC9E46704708
:10CE10000338FDD870470000000000000101000049
:10CE20000100000000000000C81100200000000008
:08CE300058F4FF7F010000002F
:10CE380006000000050000000700000007000000D1
:10CE480000C00140000000004C1200200400000057
:10CE580000000000000000000090D003C81100206E
:10CE680000000000000000000000000000000000BA
:10CE780000000000000000000000000000000000AA
:10CE8800000000000000000000000000000000009A
:10CE9800000000000000000000000000000000008A
:10CEA800000000000000000000000000000000007A
:10CEB800000000000000000000000000000000006A
:08CEC80069C2010041C2010032
:040000031000C2F92E
:00000001FF
